{
  "_format": "hh-sol-artifact-1",
  "contractName": "CustomDex",
  "sourceName": "contracts/CustomDex.sol",
  "abi": [
    {
      "inputs": [],
      "stateMutability": "nonpayable",
      "type": "constructor"
    },
    {
      "inputs": [
        {
          "internalType": "string",
          "name": "tokenName",
          "type": "string"
        },
        {
          "internalType": "address",
          "name": "_address",
          "type": "address"
        }
      ],
      "name": "getBalance",
      "outputs": [
        {
          "internalType": "uint256",
          "name": "",
          "type": "uint256"
        }
      ],
      "stateMutability": "view",
      "type": "function"
    },
    {
      "inputs": [],
      "name": "getEthBalance",
      "outputs": [
        {
          "internalType": "uint256",
          "name": "",
          "type": "uint256"
        }
      ],
      "stateMutability": "view",
      "type": "function"
    },
    {
      "inputs": [
        {
          "internalType": "string",
          "name": "tokenName",
          "type": "string"
        }
      ],
      "name": "getName",
      "outputs": [
        {
          "internalType": "string",
          "name": "",
          "type": "string"
        }
      ],
      "stateMutability": "view",
      "type": "function"
    },
    {
      "inputs": [
        {
          "internalType": "string",
          "name": "tokenName",
          "type": "string"
        }
      ],
      "name": "getTokenAddress",
      "outputs": [
        {
          "internalType": "address",
          "name": "",
          "type": "address"
        }
      ],
      "stateMutability": "view",
      "type": "function"
    },
    {
      "inputs": [
        {
          "internalType": "string",
          "name": "tokenName",
          "type": "string"
        }
      ],
      "name": "swapEthToToken",
      "outputs": [
        {
          "internalType": "uint256",
          "name": "",
          "type": "uint256"
        }
      ],
      "stateMutability": "payable",
      "type": "function"
    },
    {
      "inputs": [
        {
          "internalType": "string",
          "name": "tokenName",
          "type": "string"
        },
        {
          "internalType": "uint256",
          "name": "_amount",
          "type": "uint256"
        }
      ],
      "name": "swapTokenToEth",
      "outputs": [
        {
          "internalType": "uint256",
          "name": "",
          "type": "uint256"
        }
      ],
      "stateMutability": "nonpayable",
      "type": "function"
    },
    {
      "inputs": [
        {
          "internalType": "string",
          "name": "srcTokenName",
          "type": "string"
        },
        {
          "internalType": "string",
          "name": "destTokenName",
          "type": "string"
        },
        {
          "internalType": "uint256",
          "name": "_amount",
          "type": "uint256"
        }
      ],
      "name": "swapTokenToToken",
      "outputs": [],
      "stateMutability": "nonpayable",
      "type": "function"
    },
    {
      "inputs": [
        {
          "internalType": "string",
          "name": "",
          "type": "string"
        }
      ],
      "name": "tokenInstanceMap",
      "outputs": [
        {
          "internalType": "contract ERC20",
          "name": "",
          "type": "address"
        }
      ],
      "stateMutability": "view",
      "type": "function"
    },
    {
      "inputs": [
        {
          "internalType": "uint256",
          "name": "",
          "type": "uint256"
        }
      ],
      "name": "tokens",
      "outputs": [
        {
          "internalType": "string",
          "name": "",
          "type": "string"
        }
      ],
      "stateMutability": "view",
      "type": "function"
    }
  ],
  "bytecode": "0x600560e081815264436f696e4160d81b6101005260809081526101208281526421b7b4b72160d91b6101405260a0526101a060405261016091825264436f696e4360d81b6101805260c0919091526200005d9060009060036200017d565b506402540be4006002553480156200007457600080fd5b5060005b600054811015620001765760008082815481106200009a576200009a62000262565b9060005260206000200160008381548110620000ba57620000ba62000262565b90600052602060002001604051620000d290620001da565b620000df92919062000339565b604051809103906000f080158015620000fc573d6000803e3d6000fd5b5090508060016000848154811062000118576200011862000262565b906000526020600020016040516200013191906200036b565b90815260405190819003602001902080546001600160a01b03929092166001600160a01b031990921691909117905550806200016d81620003e9565b91505062000078565b5062000546565b828054828255906000526020600020908101928215620001c8579160200282015b82811115620001c85782518290620001b790826200047a565b50916020019190600101906200019e565b50620001d6929150620001e8565b5090565b610c58806200109083390190565b80821115620001d6576000620001ff828262000209565b50600101620001e8565b508054620002179062000278565b6000825580601f1062000228575050565b601f0160209004906000526020600020908101906200024891906200024b565b50565b5b80821115620001d657600081556001016200024c565b634e487b7160e01b600052603260045260246000fd5b600181811c908216806200028d57607f821691505b602082108103620002ae57634e487b7160e01b600052602260045260246000fd5b50919050565b60008154620002c38162000278565b808552602060018381168015620002e35760018114620002fe576200032e565b60ff1985168884015283151560051b8801830195506200032e565b866000528260002060005b85811015620003265781548a820186015290830190840162000309565b890184019650505b505050505092915050565b6040815260006200034e6040830185620002b4565b8281036020840152620003628185620002b4565b95945050505050565b60008083546200037b8162000278565b60018281168015620003965760018114620003ac57620003dd565b60ff1984168752821515830287019450620003dd565b8760005260208060002060005b85811015620003d45781548a820152908401908201620003b9565b50505082870194505b50929695505050505050565b6000600182016200040a57634e487b7160e01b600052601160045260246000fd5b5060010190565b634e487b7160e01b600052604160045260246000fd5b601f8211156200047557600081815260208120601f850160051c81016020861015620004505750805b601f850160051c820191505b8181101562000471578281556001016200045c565b5050505b505050565b81516001600160401b0381111562000496576200049662000411565b620004ae81620004a7845462000278565b8462000427565b602080601f831160018114620004e65760008415620004cd5750858301515b600019600386901b1c1916600185901b17855562000471565b600085815260208120601f198616915b828110156200051757888601518255948401946001909101908401620004f6565b5085821015620005365787850151600019600388901b60f8161c191681555b5050505050600190811b01905550565b610b3a80620005566000396000f3fe6080604052600436106100865760003560e01c806389f4b3171161005957806389f4b31714610115578063a93325ed14610135578063bf015aae1461018e578063c4091236146101b0578063db6f63ee146101d057600080fd5b80634f64b2be1461008b57806363fcf7c5146100c15780636932cf81146100e257806370ed0ada14610102575b600080fd5b34801561009757600080fd5b506100ab6100a6366004610733565b6101f0565b6040516100b89190610770565b60405180910390f35b6100d46100cf366004610868565b61029c565b6040519081526020016100b8565b3480156100ee57600080fd5b506100ab6100fd366004610868565b610361565b34801561010e57600080fd5b50476100d4565b34801561012157600080fd5b506100d461013036600461089d565b6103f4565b34801561014157600080fd5b50610176610150366004610868565b80516020818301810180516001825292820191909301209152546001600160a01b031681565b6040516001600160a01b0390911681526020016100b8565b34801561019a57600080fd5b506101ae6101a93660046108fb565b61047c565b005b3480156101bc57600080fd5b506101766101cb366004610868565b6105b3565b3480156101dc57600080fd5b506100d46101eb366004610968565b6105e4565b6000818154811061020057600080fd5b90600052602060002001600091509050805461021b906109ad565b80601f0160208091040260200160405190810160405280929190818152602001828054610247906109ad565b80156102945780601f1061026957610100808354040283529160200191610294565b820191906000526020600020905b81548152906001019060200180831161027757829003601f168201915b505050505081565b600254600090349082906102b090836109e7565b6102c290670de0b6b3a7640000610a09565b90506001846040516102d49190610a36565b9081526040519081900360200181205463a9059cbb60e01b8252336004830152602482018390526001600160a01b03169063a9059cbb906044016020604051808303816000875af115801561032d573d6000803e3d6000fd5b505050506040513d601f19601f820116820180604052508101906103519190610a52565b61035a57600080fd5b9392505050565b60606001826040516103739190610a36565b90815260408051918290036020018220546306fdde0360e01b835290516001600160a01b03909116916306fdde039160048083019260009291908290030181865afa1580156103c6573d6000803e3d6000fd5b505050506040513d6000823e601f3d908101601f191682016040526103ee9190810190610a74565b92915050565b60006001836040516104069190610a36565b908152604051908190036020018120546370a0823160e01b82526001600160a01b03848116600484015216906370a0823190602401602060405180830381865afa158015610458573d6000803e3d6000fd5b505050506040513d601f19601f8201168201806040525081019061035a9190610aeb565b60018360405161048c9190610a36565b908152604051908190036020018120546323b872dd60e01b8252336004830152306024830152604482018390526001600160a01b0316906323b872dd906064016020604051808303816000875af11580156104eb573d6000803e3d6000fd5b505050506040513d601f19601f8201168201806040525081019061050f9190610a52565b61051857600080fd5b6001826040516105289190610a36565b9081526040519081900360200181205463a9059cbb60e01b8252336004830152602482018390526001600160a01b03169063a9059cbb906044016020604051808303816000875af1158015610581573d6000803e3d6000fd5b505050506040513d601f19601f820116820180604052508101906105a59190610a52565b6105ae57600080fd5b505050565b60006001826040516105c59190610a36565b908152604051908190036020019020546001600160a01b031692915050565b6000806105f9670de0b6b3a7640000846109e7565b905060006002548261060b9190610a09565b9050804710156106615760405162461bcd60e51b815260206004820152601d60248201527f4465782069732072756e6e696e67206c6f77206f6e2062616c616e6365000000604482015260640160405180910390fd5b604051339082156108fc029083906000818181858888f1935050505015801561068e573d6000803e3d6000fd5b5060018560405161069f9190610a36565b908152604051908190036020018120546323b872dd60e01b8252336004830152306024830152604482018690526001600160a01b0316906323b872dd906064016020604051808303816000875af11580156106fe573d6000803e3d6000fd5b505050506040513d601f19601f820116820180604052508101906107229190610a52565b61072b57600080fd5b949350505050565b60006020828403121561074557600080fd5b5035919050565b60005b8381101561076757818101518382015260200161074f565b50506000910152565b602081526000825180602084015261078f81604085016020870161074c565b601f01601f19169190910160400192915050565b634e487b7160e01b600052604160045260246000fd5b604051601f8201601f1916810167ffffffffffffffff811182821017156107e2576107e26107a3565b604052919050565b600067ffffffffffffffff821115610804576108046107a3565b50601f01601f191660200190565b600082601f83011261082357600080fd5b8135610836610831826107ea565b6107b9565b81815284602083860101111561084b57600080fd5b816020850160208301376000918101602001919091529392505050565b60006020828403121561087a57600080fd5b813567ffffffffffffffff81111561089157600080fd5b61072b84828501610812565b600080604083850312156108b057600080fd5b823567ffffffffffffffff8111156108c757600080fd5b6108d385828601610812565b92505060208301356001600160a01b03811681146108f057600080fd5b809150509250929050565b60008060006060848603121561091057600080fd5b833567ffffffffffffffff8082111561092857600080fd5b61093487838801610812565b9450602086013591508082111561094a57600080fd5b5061095786828701610812565b925050604084013590509250925092565b6000806040838503121561097b57600080fd5b823567ffffffffffffffff81111561099257600080fd5b61099e85828601610812565b95602094909401359450505050565b600181811c908216806109c157607f821691505b6020821081036109e157634e487b7160e01b600052602260045260246000fd5b50919050565b600082610a0457634e487b7160e01b600052601260045260246000fd5b500490565b6000816000190483118215151615610a3157634e487b7160e01b600052601160045260246000fd5b500290565b60008251610a4881846020870161074c565b9190910192915050565b600060208284031215610a6457600080fd5b8151801515811461035a57600080fd5b600060208284031215610a8657600080fd5b815167ffffffffffffffff811115610a9d57600080fd5b8201601f81018413610aae57600080fd5b8051610abc610831826107ea565b818152856020838501011115610ad157600080fd5b610ae282602083016020860161074c565b95945050505050565b600060208284031215610afd57600080fd5b505191905056fea2646970667358221220d00bbb9721bb4b2eb5ee98de9b323c79a2c4681246082c9957e95a18952ec45764736f6c6343000810003360806040523480156200001157600080fd5b5060405162000c5838038062000c5883398101604081905262000034916200020a565b8181600362000044838262000302565b50600462000053828262000302565b505050620000723369152d02c7e14af68000006200007a60201b60201c565b5050620003f6565b6001600160a01b038216620000d55760405162461bcd60e51b815260206004820152601f60248201527f45524332303a206d696e7420746f20746865207a65726f206164647265737300604482015260640160405180910390fd5b8060026000828254620000e99190620003ce565b90915550506001600160a01b038216600081815260208181526040808320805486019055518481527fddf252ad1be2c89b69c2b068fc378daa952ba7f163c4a11628f55a4df523b3ef910160405180910390a35050565b505050565b634e487b7160e01b600052604160045260246000fd5b600082601f8301126200016d57600080fd5b81516001600160401b03808211156200018a576200018a62000145565b604051601f8301601f19908116603f01168101908282118183101715620001b557620001b562000145565b81604052838152602092508683858801011115620001d257600080fd5b600091505b83821015620001f65785820183015181830184015290820190620001d7565b600093810190920192909252949350505050565b600080604083850312156200021e57600080fd5b82516001600160401b03808211156200023657600080fd5b62000244868387016200015b565b935060208501519150808211156200025b57600080fd5b506200026a858286016200015b565b9150509250929050565b600181811c908216806200028957607f821691505b602082108103620002aa57634e487b7160e01b600052602260045260246000fd5b50919050565b601f8211156200014057600081815260208120601f850160051c81016020861015620002d95750805b601f850160051c820191505b81811015620002fa57828155600101620002e5565b505050505050565b81516001600160401b038111156200031e576200031e62000145565b62000336816200032f845462000274565b84620002b0565b602080601f8311600181146200036e5760008415620003555750858301515b600019600386901b1c1916600185901b178555620002fa565b600085815260208120601f198616915b828110156200039f578886015182559484019460019091019084016200037e565b5085821015620003be5787850151600019600388901b60f8161c191681555b5050505050600190811b01905550565b80820180821115620003f057634e487b7160e01b600052601160045260246000fd5b92915050565b61085280620004066000396000f3fe608060405234801561001057600080fd5b50600436106100a95760003560e01c80633950935111610071578063395093511461012357806370a082311461013657806395d89b411461015f578063a457c2d714610167578063a9059cbb1461017a578063dd62ed3e1461018d57600080fd5b806306fdde03146100ae578063095ea7b3146100cc57806318160ddd146100ef57806323b872dd14610101578063313ce56714610114575b600080fd5b6100b66101a0565b6040516100c3919061069c565b60405180910390f35b6100df6100da366004610706565b610232565b60405190151581526020016100c3565b6002545b6040519081526020016100c3565b6100df61010f366004610730565b61024c565b604051601281526020016100c3565b6100df610131366004610706565b610270565b6100f361014436600461076c565b6001600160a01b031660009081526020819052604090205490565b6100b6610292565b6100df610175366004610706565b6102a1565b6100df610188366004610706565b610321565b6100f361019b36600461078e565b61032f565b6060600380546101af906107c1565b80601f01602080910402602001604051908101604052809291908181526020018280546101db906107c1565b80156102285780601f106101fd57610100808354040283529160200191610228565b820191906000526020600020905b81548152906001019060200180831161020b57829003601f168201915b5050505050905090565b60003361024081858561035a565b60019150505b92915050565b60003361025a85828561047e565b6102658585856104f8565b506001949350505050565b600033610240818585610283838361032f565b61028d91906107fb565b61035a565b6060600480546101af906107c1565b600033816102af828661032f565b9050838110156103145760405162461bcd60e51b815260206004820152602560248201527f45524332303a2064656372656173656420616c6c6f77616e63652062656c6f77604482015264207a65726f60d81b60648201526084015b60405180910390fd5b610265828686840361035a565b6000336102408185856104f8565b6001600160a01b03918216600090815260016020908152604080832093909416825291909152205490565b6001600160a01b0383166103bc5760405162461bcd60e51b8152602060048201526024808201527f45524332303a20617070726f76652066726f6d20746865207a65726f206164646044820152637265737360e01b606482015260840161030b565b6001600160a01b03821661041d5760405162461bcd60e51b815260206004820152602260248201527f45524332303a20617070726f766520746f20746865207a65726f206164647265604482015261737360f01b606482015260840161030b565b6001600160a01b0383811660008181526001602090815260408083209487168084529482529182902085905590518481527f8c5be1e5ebec7d5bd14f71427d1e84f3dd0314c0f7b2291e5b200ac8c7c3b925910160405180910390a3505050565b600061048a848461032f565b905060001981146104f257818110156104e55760405162461bcd60e51b815260206004820152601d60248201527f45524332303a20696e73756666696369656e7420616c6c6f77616e6365000000604482015260640161030b565b6104f2848484840361035a565b50505050565b6001600160a01b03831661055c5760405162461bcd60e51b815260206004820152602560248201527f45524332303a207472616e736665722066726f6d20746865207a65726f206164604482015264647265737360d81b606482015260840161030b565b6001600160a01b0382166105be5760405162461bcd60e51b815260206004820152602360248201527f45524332303a207472616e7366657220746f20746865207a65726f206164647260448201526265737360e81b606482015260840161030b565b6001600160a01b038316600090815260208190526040902054818110156106365760405162461bcd60e51b815260206004820152602660248201527f45524332303a207472616e7366657220616d6f756e7420657863656564732062604482015265616c616e636560d01b606482015260840161030b565b6001600160a01b03848116600081815260208181526040808320878703905593871680835291849020805487019055925185815290927fddf252ad1be2c89b69c2b068fc378daa952ba7f163c4a11628f55a4df523b3ef910160405180910390a36104f2565b600060208083528351808285015260005b818110156106c9578581018301518582016040015282016106ad565b506000604082860101526040601f19601f8301168501019250505092915050565b80356001600160a01b038116811461070157600080fd5b919050565b6000806040838503121561071957600080fd5b610722836106ea565b946020939093013593505050565b60008060006060848603121561074557600080fd5b61074e846106ea565b925061075c602085016106ea565b9150604084013590509250925092565b60006020828403121561077e57600080fd5b610787826106ea565b9392505050565b600080604083850312156107a157600080fd5b6107aa836106ea565b91506107b8602084016106ea565b90509250929050565b600181811c908216806107d557607f821691505b6020821081036107f557634e487b7160e01b600052602260045260246000fd5b50919050565b8082018082111561024657634e487b7160e01b600052601160045260246000fdfea264697066735822122059cf4e2a65d022d5b8774dafe0861708ba9e4310db2c7acfc94a1b6b8e61e43364736f6c63430008100033",
  "linkReferences": {},
  "deployedLinkReferences": {}
}